:020000040800F2
:10000000680A00209D0100086B2D0008CB2900081C
:10001000692D0008F5030008E13400080000000025
:100020000000000000000000000000008F2D00080C
:10003000F7030008000000008D2D0008912D000836
:10004000B7010008B7010008B7010008B7010008B0
:10005000B7010008B7010008F9030008B70100085C
:10006000B7010008B7010008B7010008B701000890
:10007000B7010008B7010008B7010008B701000880
:10008000B7010008B701000821020008B701000805
:10009000B7010008B7010008B7010008B701000860
:1000A000B7010008B7010008B7010008B701000850
:1000B000992E0008B7010008B7010008B701000831
:1000C000B7010008B7010008B7010008B701000830
:1000D000B7010008B7010008D5340008B7010008CF
:1000E00061040008B7010008B7010008B701000863
:1000F000B7010008B7010008B7010008B701000800
:10010000000000000000000000000000B70100082F
:10011000B7010008B7010008B7010008B7010008DF
:10012000B7010008B7010008B7010008B7010008CF
:10013000B7010008B701000800000000000000003F
:10014000B7010008B7010008B7010008000000006F
:10015000000000000000000000000000000000009F
:100160000000000000000000B7010008B70100080F
:10017000B7010008000000000000000000000000BF
:1001800000000000B7010008DFF80CD000F036F8DE
:1001900000480047AD390008680A0020064880473B
:1001A00006480047FEE7FEE7FEE7FEE7FEE7FEE75C
:1001B000FEE7FEE7FEE7FEE7312E000889010008B2
:1001C000421C10F8011B0029FBD1801A704730B582
:1001D0000B46014600202022012409E021FA02F505
:1001E0009D4205D303FA02F5491B04FA02F528449F
:1001F000151EA2F10102F1DC30BD0000064C074DD6
:1002000006E0E06840F0010394E8070098471034E6
:10021000AC42F6D3FFF7BCFFE03D0008003E00080B
:100220001FB53A4800F0B4FB394800F0B1FB39483B
:100230000068002861D102240121112003F05CFD37
:10024000002003F077FD0121102003F055FD01206F
:1002500003F070FD01210F2003F04EFD2EA003F0EE
:100260006BFC01210D2003F047FD2CA003F064FC82
:1002700001210A2003F040FD224629A1684603F02F
:1002800031F9684603F058FC26480121026832B172
:1002900042682548022A00D30021016001E0C0E93C
:1002A00000141B4800F070FB04460221112003F0EB
:1002B00023FD022003F03EFD0221102003F01CFD6F
:1002C000032003F037FD02210F2003F015FD12A0DB
:1002D00003F032FC02210D2003F00EFD13A003F009
:1002E0002BFC02210A2003F007FD22460CA102A8E4
:1002F00003F0F8F802A803F01FFC044800F044FEE5
:1003000004B00348BDE8104000F03EBEB400002039
:1003100008010020140000203A0000004300000003
:1003200025642000880000201C000020250000001B
:1003300070B504460068816801F00301012926D1E7
:100340000168C90723D0816801F00D01012910D18E
:10035000816841F00201816021680320086000F09B
:10036000E7FF05460FE000BF00F0E2FF401B022858
:1003700009D9606C40F010006064A06C40F001008E
:10038000A064012070BD20688068C007ECD1002007
:1003900070BD000070B504460068816801F003017B
:1003A000012902D10168C90720D18168104A114290
:1003B0000DD1816841F00101816000F0B9FF05466F
:1003C0000FE000BF00F0B4FF401B022809D9606CA9
:1003D00040F010006064A06C40F00100A0640120B7
:1003E00070BD20680068C043C007EBD1002070BD1D
:1003F0003F000080FEE7704710B5012000F0BEFE10
:1004000003F0E0F90F4C2068B0B90121002003F09F
:1004100073FC042003F08EFC0121084603F06CFC01
:1004200009A003F089FB0221012003F065FC08A06C
:1004300003F082FB206810B10020206010BD012075
:10044000FBE7000014000020312E4D4F4445000012
:10045000322E4F4E2F4F46462F4155544F0000002D
:100460001CB54FF4804000F089FE4FF4004000F0CE
:1004700085FE4FF48071114800F050FF104800686D
:10048000002819D00FA14FF47A73D1E90001CDE90A
:100490000001082269460D4802F03CFA01210020C3
:1004A00003F02AFC0AA003F047FB0221002003F01E
:1004B00023FC042003F03EFC1CBD0000001000489B
:1004C0001400002048656C6C6F200A004C0200206C
:1004D000200000007047704770477047F0B5002358
:1004E00002684FF0A04C3D4C95B01F46624501D1CB
:1004F00000940DE0A24202D1CDF800C008E0384DD2
:10050000384EAA4201D1009602E0B24214D10095C1
:1005100090F84050012D12D0012580F84050956888
:100520006D0752D4009DAD686D074ED4624501D071
:10053000A24206D12C4A05E0012015B0F0BD0220F0
:10054000FBE72A4A0D6840F61F741DB39568466B99
:1005500025F4604545EA46354E68354395600568A3
:10056000AE6806F00306012E02D12D68ED0731D1E9
:10057000009DAD6805F00305012D03D1009D2D6898
:10058000ED0727D10D6889680D439168A1430D439C
:1005900095601FE0916821F46041916001688D6869
:1005A00005F00305012D02D10968C90712D1009990
:1005B000896801F00301012903D100990968C9077D
:1005C00008D19168A143916004E0416C41F02001A1
:1005D0004164012380F840701846AEE700010050E6
:1005E00000040050000500500003005000070050B8
:1005F000F0B595B00024009490F840202546012ADB
:1006000019D0012780F8407003689A6852077CD49B
:100610004A681F26052A11D2D3F830C002EB4202E5
:10062000520096402CEA060C0E6896404CEA060CE6
:10063000C3F830C035E0022015B0F0BD0A2A0FD251
:10064000D3F834C0521F02EB4202520096402CEA0B
:10065000060C0E6896404CEA060CC3F834C020E045
:100660000F2A0FD2D3F838C00A3A02EB42025200E6
:1006700096402CEA060C0E6896404CEA060CC3F82D
:1006800038C00EE0D3F83CC00F3A02EB42025200F1
:1006900096402CEA060C0E6896404CEA060CC3F80D
:1006A0003CC00268936813F00C0F4FF0070374D13D
:1006B000D1F800E0BEF10A0F10D39669AEF10A0E30
:1006C0000EEB4E0C03FA0CFE26EA0E06D1F808E0FB
:1006D0000EFA0CFE46EA0E0696610FE0D2F814C040
:1006E0000EEB4E0603FA06FE2CEA0E0CD1F808E0DB
:1006F0000EFA06FE4CEA0E0CC2F814C002684E69EF
:10070000D2F80CC0CCF3C10C00E0FDE04FEA4C0C79
:1007100006FA0CF6D1F810E0DFF848C2BEF1010F7E
:1007200042D0BEF1020F4DD0BEF1030F58D0BEF142
:10073000040F63D0166E91F800C006F0F846B6EBD1
:100740008C6F03D1166E26F0004616660268566E50
:1007500091F800C006F0F846B6EB8C6F03D1566EE8
:1007600026F0004656660268966E91F800C006F0C4
:10077000F846B6EB8C6F03D1966E26F0004696666F
:100780000268D66E91F800C006F0F846B6EB8C6FA2
:1007900003D1D66E26F00046D6660268966806F04B
:1007A0000306012E3AD136E0D2F860E00EEA0C0ED4
:1007B00091F800C046EA8C664EEA060E4EF00046FE
:1007C0001666EAE7D2F864E00EEA0C0E91F800C073
:1007D00046EA8C664EEA060E4EF000465666DCE7A8
:1007E000D2F868E00EEA0C0E91F800C046EA8C667A
:1007F0004EEA060E4EF000469666CEE7D2F86CE062
:100800000EEA0C0E91F800C046EA8C664EEA060E1F
:100810004EF00046C0E71668F6077AD1CE68012E82
:1008200006D052F8B03F0E78B740BB43136021E0CA
:1008300052F8B06F91F800C007FA0CF73E4316600B
:100840000A680A2A0BD30668B769093A02EB420222
:1008500093409F438B6893401F43B7610AE007684A
:100860007E69521C02EB420293409E438B68934088
:100870001E437E6103684FF0A0473B4EBB4201D050
:10088000B34201D1394A00E0394A0968102904D03D
:10089000112907D012290AD03BE0D2F808C04FEA4C
:1008A0000C2C08E0D2F808C04FEACC1C03E0D2F8C8
:1008B00008C04FEA4C2CBCF1000F2ADBBB420DD024
:1008C000B34201D100970CE02A4EDFF8ACC0B3422E
:1008D00002D1CDF800C004E0634501D1009600E0EC
:1008E00000959E6806F00306012E02D11E68F607E9
:1008F0000AD1009E8EB1B66806F00306012E0CD117
:10090000009E3668F60708D0416C41F02001416432
:10091000012480F8405020468EE6102908D0112985
:100920001AD01229F5D1916841F480019160F0E765
:10093000BB42EED1916841F4000191600F49104A29
:100940000968B1FBF2F101EB8101490000E0491EA9
:1009500000910029FBD1DCE7BB42DAD1916841F07C
:100960008071E3E700F0FF830001005000030050B6
:10097000000700500004005000050050A0000020B7
:1009800040420F00704770470068006C70470000DD
:100990002DE9F041044600680168C34FC34DC44EC1
:1009A00049074FF0A04802D54168490705D40168BE
:1009B000090761D5416809075ED5616CC90603D492
:1009C000616C41F4007161644146884201D0B042DB
:1009D00002D1D1F8082300E03A6812F01F0F1BD0B3
:1009E000884201D0B04202D1D1F8082300E03A6831
:1009F00002F01F02052A0FD0884201D0B04202D176
:100A0000D1F8082300E03A6802F01F02092A03D057
:100A1000884201D0A84201D1C16803E0B04200D0B1
:100A20002946C968C26812F4406F1FD189041DD4D9
:100A3000016809071AD5816849070FD4416821F078
:100A40000C014160606C20F480706064606CC004D4
:100A50000CD4606C40F00100606407E0606C40F012
:100A600010006064A06C40F00100A0642046FFF715
:100A700089FF21680C20086020680168890602D57A
:100A80004168890605D4016849066ED54168490662
:100A90006BD5616C41F4005161644246904201D0D3
:100AA000B04202D1D2F8081300E0396811F01F0FEC
:100AB0001CD0904201D0B04202D1D2F8081300E01D
:100AC000396801F01F01052910D04146884201D044
:100AD000B04202D1D1F8083300E03B6803F01F03B5
:100AE000092B03D0884201D0A84201D1C16803E09C
:100AF000B04200D02946C968C36C13F0C00F07D0BC
:100B00008B0154D4C36813F4406F50D189044ED480
:100B1000016849064BD51146884201D0B04202D146
:100B2000D1F8082300E03A6812F01F0F1BD088426A
:100B300001D0B04202D1D1F8082300E03A6802F0B7
:100B40001F02062A0FD0884201D0B04202D1D1F84C
:100B5000082300E03A6802F01F02072A03D0884207
:100B600001D0A84202D1C16804E026E0B04200D022
:100B70002946C96889021AD4816809070FD44168D7
:100B800021F060014160606C20F480506064606C12
:100B9000C0050CD4606C40F00100606407E0606C3C
:100BA00040F010006064A06C40F00100A06420469A
:100BB000FFF790FC21686020086020680168090642
:100BC0000CD54068000609D5606C40F48030606444
:100BD000204600F095F921688020086020680168AF
:100BE000C9050DD54068C0050AD5606C40F40030D9
:100BF00060642046FFF770FC21684FF48070086045
:100C00002068016889050DD5406880050AD5606CAB
:100C100040F4802060642046FFF75FFC21684FF4B9
:100C20000070086020680168C90622D54168C906BD
:100C30001FD5A16B01290ED0404501D0B04201D192
:100C40001C4901E0184908398A68D20628D088680A
:100C500000F4404050B1606C40F480606064A06C6F
:100C600040F00200A0642046FFF78DFE21681020AE
:100C7000086020680168490510D5416849050DD50F
:100C8000616C41F480416164A16C41F00801A16490
:100C90004FF4806101602046FFF71DFCBDE8F08144
:100CA000C068C007D6E700000807005000040050E5
:100CB0000001005000030050F0B54FF0000695B061
:100CC000040037463546009605D0606CC00648D40F
:100CD000606C18B133E0012015B0F0BDA564256546
:100CE000E56484F84050204600F00CF920688068E4
:100CF000C00024D42046FFF71BFB0646606CC006EC
:100D00001DD4E6B9606C20F4885040F002006064A5
:100D10002068816821F0405181602068816841F03D
:100D2000805181606D486E490068B0FBF1F000EBC6
:100D30008000400000E0401E00900028FBD12068A9
:100D40008168C90002D5806880000AD5606C20F0F7
:100D5000020040F010006064A06C40F00100A0644C
:100D60000126606CC00675D4002E73D1206881689E
:100D700049076FD4616C21F4807141F00201616414
:100D80004FF0A04E574B704501D0984201D1564AC2
:100D900000E0564ADFF858C15649704501D100932A
:100DA0000EE0984202D1CDF800E009E0884202D17D
:100DB000CDF800C004E0604501D1009100E000954D
:100DC000836803F00303012B02D10068C00710D130
:100DD000009840B1806800F00300012803D100981A
:100DE0000068C00705D19068636820F4403018435C
:100DF0009060D4E902201043A26B012A02D04FF484
:100E0000805300E00023E26943EA42331843636AF7
:100E10003843012B0AD1F2B1626C22F0020242F097
:100E200020026264A26C42F00102A264E26A012A1A
:100E300021D023688B4201D0634518D14FF430771D
:100E40004FF4E071BA4213D04FF480739A420AD142
:100E500039460DE038E0228D274B03EB4242024336
:100E600042F48030E2E78A4201D1194600E011469F
:100E70000143206B084321688A6812F00C0F0AD1E5
:100E8000CA6844F202039A43CA60A169626B89038B
:100E900041EA420108432268D168184B19400143D6
:100EA000D160206901282068016B21F00F0102D177
:100EB000226A521E11430163A564606C20F0020097
:100EC00040F00100606406E0606C20F0020040F039
:100ED0001000606401263046FEE60000A0000020FD
:100EE00040420F0000010050000300500007005076
:100EF00000050050000400500000FEFF07C0F0FF96
:100F000070470000F0B51D4A0668002411681C4BAC
:100F10000325491C87B04FF09040B6F1A04F06D092
:100F2000184FBE4227D1116001290DD014E0116085
:100F3000012907D1596941F080515961596901F07E
:100F400080510591022108E0596941F080515961B1
:100F5000596901F0805105911021CDE900150294E5
:100F6000694600F017F900220121122000F042FB2F
:100F7000122000F033FB07B0F0BD0000900000200D
:100F800000100240000100502DE9F04104460068C5
:100F90008068400770D494F8400001280CD00120EC
:100FA00084F840002046FFF7F5F903004FF00006F3
:100FB00005D084F840609EE00220BDE8F081606CBE
:100FC00040F60161884340F48070606420684FF00F
:100FD000A0414A4A4A4D884201D0904202D1D1F8FC
:100FE000087300E02F6817F01F0F464F03D08842A8
:100FF00001D0B8420BD1D4F844C02CF4801CC4F802
:1010000044C0D0F80CC05FEA8C1C14D41BE0D4F8A8
:1010100044C04CF4801CC4F844C0904202D1D1F8C2
:101020000CC005E0DFF8DCC00CF10C0CDCF800C0F3
:101030001CF0007F07D0D4F844C02CF4005C4CF4C2
:10104000805CC4F844C0D4F844C05FEACC4C06D5F8
:10105000D4F848C02CF0060CC4F848C000E0A664E0
:1010600084F840601C26066060690828206846688D
:1010700003D046F00C0607E03CE026F0040646608C
:101080002068466846F008064660A06B012804D137
:101090002068466826F0100646602068884201D025
:1010A000904202D1D1F8084300E02C6814F01F0FE1
:1010B0001BD0884201D0904202D1D1F8084300E011
:1010C0002C6804F01F04052C0FD0884201D09042F8
:1010D00002D1D1F8082300E02A6802F01F02092A91
:1010E00003D0884201D0B84205D1816841F00401A3
:1010F000816000E0022318465FE700000001005015
:10110000080700500004005010B590F8211000248A
:10111000022903D004218163012418E001680A68D0
:1011200022F00E020A6001680A6822F001020A60D9
:1011300090F84020C36B012101FA02F25A6080F856
:101140002110002180F82010416B01B18847204612
:1011500010BD000070B5044600F0EAF80546601CBA
:1011600002D004480078044400F0E2F8401BA0429A
:10117000FAD370BD9400002070470000044910B5F8
:101180000A68024202D00860FFF7F6FF10BD0000B7
:10119000140401402DE9F84FDFF864B100234FF04B
:1011A000010C4FF0030A4FF00F090BF1040EA0E001
:1011B0000CFA03F6324072D04C68022C01D0122C8B
:1011C0000ED1DC0800EB8408D8F820405D07EF0E54
:1011D00009FA07F5AC430D69BD402543C8F8205016
:1011E00007685D0091F804800AFA05F408F0030826
:1011F000A74308FA05F848EA0708C0F800804F68D6
:10120000012F05D0022F03D0112F01D0122F11D1A1
:101210008768D1F80C80A74308FA05F848EA070860
:10122000C0F808804768B7430E79C6F300169E40A1
:101230003E434660C668A6438C68AC403443C460F5
:101240004C68E40054D52F4CA56945F00105A56113
:10125000A46923F0030504F0010400942A4C2E191C
:10126000B4689D072F0F09FA07F5AC43B0F1904F12
:1012700004D0264DA84203D1012512E0002510E03C
:10128000234DA84201D102250BE0224DA84201D1F5
:10129000032506E0204DA84202D1042501E027E005
:1012A0000525BD402543B560DBF800405D464E682E
:1012B0009443F60300D514432C60DEF800407546D5
:1012C0004E689443B60300D514432C600C4D08358A
:1012D0002C684E689443F60200D514432C60084DE8
:1012E0000C352C684E689443B60200D514432C602C
:1012F0005B1C0A6832FA03F47FF45AAFBDE8F88F3A
:1013000000040140001002400000014000040048B9
:1013100000080048000C00480010004842694A409C
:10132000426170470AB18161704781627047000075
:1013300001488068704700009400002090F8412028
:10134000202A24D190F84020012A20D0012280F8C0
:101350004020242280F841200268136823F0010312
:1013600013600268136823F48053136002681368E3
:101370000B43136001680A6842F001020A602021F1
:1013800080F84110002180F8401008467047022084
:10139000704790F84120202A22D190F84020012A5D
:1013A0001ED0012280F84020242280F841200268CB
:1013B000136823F0010313600268136823F4706359
:1013C00043EA0121116001680A6842F001020A60E3
:1013D000202180F84110002180F840100846704715
:1013E0000220704770B5040004D094F84100002535
:1013F00010B106E0012070BD84F84050204600F096
:101400004DF8242084F841002068016821F0010192
:1014100001606068216820F0706008612068816860
:1014200021F400418160E0680128A06807D040F401
:10143000044021688860E068022803D006E040F498
:101440000040F6E721684FF400604860206841687A
:10145000114A114341602068C16821F40041C16014
:10146000D4E904010843A16940EA01202168C86069
:10147000D4E907010843216808602068016841F049
:10148000010101606564202084F84100256384F82F
:101490004250002070BD00000080000200B50068CE
:1014A0000E4987B0884216D1C020009012200190CA
:1014B000012002900320039004200490694608480C
:1014C000FFF768FE0748C16941F40011C161C069B6
:1014D00000F40010059007B000BD0000005400406B
:1014E000000400480010024002488168027811445C
:1014F0008160704794000020074810B5016841F0F2
:1015000010010160032000F095F8002000F006F8BB
:1015100000F024F8002010BD0020024070B50D4DF1
:1015200004464FF47A712878B1FBF0F00A49096853
:10153000B1FBF0F000F075FE48B9102C07D2002284
:101540002146501E00F056F800206C6070BD01204E
:1015500070BD000094000020A00000201E4808B5C7
:10156000816941F001018161816901F0010100910E
:10157000C16941F08051C161C06900F080500090A4
:10158000062000F057F8002211466FF00B0000F023
:1015900031F8002211466FF00A0000F02BF800220B
:1015A00011466FF0090000F025F800221146501F87
:1015B00000F020F800221146101F00F01BF8002256
:1015C0001146901E00F016F80022BDE808401146B2
:1015D000501E00F00FB800000010024000F01F0283
:1015E000012191404009800000F1E020C0F8001185
:1015F00070470000F0B40E4B1B680C46C3F3022387
:10160000C3F10705042D00D90425191D072901D2AE
:10161000002300E0DB1E012606FA05F1491E2140E9
:1016200099409E40761E16403143F0BC01F09EBBAF
:101630000CED00E0064900F0070208684FF6FF03D2
:10164000184040EA0220034A104308607047000037
:101650000CED00E00000FA0570B504004FF0000644
:1016600004D094F87103002510B106E0012070BD8C
:1016700084F87053204600F043F8032084F8710387
:1016800001220CE0C6EBC60004EB800080F82920A4
:1016900000F8286F761CC570C560056145616068FB
:1016A000B042EFD8002010E0C0EBC00104EB810194
:1016B00081F8CD5181F8CC0181F8CF51C1F8D851D2
:1016C000C1F8DC51401CC1F8E05161688142EBD89F
:1016D0002068A0F840202068A0F840502068A0F8BA
:1016E00044502068A0F8505021684FF43F40A1F8C2
:1016F000400084F8245084F87123002070BD00005D
:1017000000B500680F4987B0884218D14FF4C05027
:1017100000900220019000200290032003900E20F0
:10172000049069464FF09040FFF734FD0648C169C8
:1017300041F40001C161C06900F40000059007B0E8
:1017400000BD0000005C0040001002402DE9F84F91
:1017500004460068804DC0036FD5E8690026C000CC
:1017600008D4E86940F08050E861E869012600F09B
:101770008050009079480168C90512D401688046FC
:1017800041F480710160FFF7D3FD074605E000BF1B
:10179000FFF7CEFDC01B642835D8D8F80000C0057F
:1017A000F6D5286A10F4407053D0A18801F4407136
:1017B00081424ED0286A4FF4803191FAA1F2B2FAF8
:1017C00082F29700664A4FF00108174420F44070F7
:1017D000C7F8008491FAA1F1B1FA81F102EB81011D
:1017E0000023C1F800342862C00732D0FFF7A0FD03
:1017F000074641F2883A4FF0020907E0FFF798FDEB
:10180000C11B514502D90320BDE8F88F99FAA9F10F
:10181000B1FA81F141F040014846B8EB511F01D1C6
:1018200029680CE090FAA0F1B1FA81F141F0400191
:10183000B0EB511F02D1296A01E015E0696A99FAFB
:10184000A9F0B0FA80F000F01F0008FA00F211428F
:10185000D4D0286A616820F44070084328621EB121
:10186000E86920F08050E8612078C00705D0286B37
:10187000A16820F00300084328632078800705D57D
:10188000286BE16820F44030084328632078400743
:1018900005D5286B216920F440200843286320786F
:1018A000800605D5286BE16920F010000843286305
:1018B0002068800305D56868A16B20F48000084388
:1018C00068602078400605D5286B216A20F020004A
:1018D000084328632078000705D5286B616920F448
:1018E0004010084328632078C00605D5286BA169FD
:1018F00020F44000084328632088800505D56868E7
:10190000E16A20F40000084368602078000605D5ED
:10191000E86A616A20F4F8700843E8622088C0052C
:1019200005D5E86AA16A20F478500843E862208867
:10193000C00405D5286B216B20F480700843286310
:101940002088800405D5286B616B20F40070084363
:101950002863002058E7000000100240007000409B
:10196000000042422DE9F0470F46050069D04A4E7B
:10197000306800F00700B84209D2306820F0070054
:1019800038433060306800F00700B84259D12878F9
:10199000424C800705D56068A96820F0F000084334
:1019A00060602878C0073DD06968012001290DD00A
:1019B000022923D05FF0020393FAA3F2B2FA82F273
:1019C00042F02002520904D0226803E04FF40033B1
:1019D000F2E7626A93FAA3F3B3FA83F303F01F0307
:1019E000984002422DD0606820F0030008436060F8
:1019F000FFF79EFC804641F288390CE04FF00073FF
:101A0000DAE700BFFFF794FCA0EB0801494502D9D3
:101A10000320BDE8F0876068696800F00C00B0EB57
:101A2000810FEFD1306800F00700B8420BD9306861
:101A300020F0070038433060306800F00700B842FB
:101A400001D00120E5E72878400705D56068E968FE
:101A500020F4E060084360602878000706D56068DD
:101A6000296920F4605040EAC100606000F052F83B
:101A70006168F02292FAA2F201F0F001B2FA82F269
:101A8000D140074A515CC840064908600020FFF772
:101A900045FD0020BDE7000000200240001002408C
:101AA000C83D0008A0000020014800687047000001
:101AB000A000002008480949006849684FF4E06226
:101AC00092FAA2F201F4E061B2FA82F2D140044A41
:101AD000515CC84070470000A00000200010024088
:101AE000D83D000808480949006849684FF4605229
:101AF00092FAA2F201F46051B2FA82F2D140044AA1
:101B0000515CC84070470000A00000200010024057
:101B1000D83D0008144B10B55A68144802F00C0167
:101B200004291DD008291BD14FF4701494FAA4F491
:101B300002F47011B4FA84F4E1400D4CDB6A615C8C
:101B40000F2494FAA4F403F00F03B4FA84F4E340EE
:101B5000074C1034D203E35C03D5B0FBF3F04843E9
:101B600010BD0448484310BD0010024000127A0026
:101B7000A83D000800093D002DE9F84F040071D090
:101B80002078FB4DC0074FF0010625D06868770428
:101B9000C0F38100012807D06868C0F381000228E3
:101BA0001BD16868C00318D597FAA7F0B0FA80F087
:101BB00040F02000400901D0286800E0686A97FAE8
:101BC000A7F1B1FA81F101F01F0106FA01F1084213
:101BD00065D060680028D2D061E06068B0F5803FD1
:101BE0000BD010B1B0F5A02F17D0286820F48030AA
:101BF0002860286820F4802002E0286840F48030C3
:101C00002860E86AA16820F00F000843E862606875
:101C100020B3FFF78DFB80460AE0286840F480205F
:101C20002860EAE7FFF784FBA0EB0800642872D87D
:101C300097FAA7F0B0FA80F040F02000400901D0F8
:101C4000286800E0686A97FAA7F1B1FA81F101F01B
:101C50001F0106FA01F10842E4D020E0FFF768FB1B
:101C6000804607E0C7E000BFFFF762FBA0EB08007B
:101C70006428DCD897FAA7F0B0FA80F040F0200092
:101C8000400901D0286800E0686A97FAA7F1B1FA24
:101C900081F101F01F0106FA01F10842E4D1207838
:101CA000DFF8D08280074FF0000A4FF0020759D5C5
:101CB00068684FF0F80B10F00C0F07D06868C0F39D
:101CC000810002281BD16868C00318D497FAA7F0D6
:101CD000B0FA80F040F02000400901D0286800E010
:101CE000686A97FAA7F1B1FA81F101F01F0106FACB
:101CF00001F108422BD0206901287CD127E020691E
:101D000088B396FAA6F0B0FA80F048F82060FFF7A2
:101D10000FFB814606E055E1FFF70AFBA0EB090047
:101D2000022884D897FAA7F0B0FA80F040F020009B
:101D3000400901D0286800E0686A97FAA7F1B1FA73
:101D400081F101F01F0106FA01F10842E4D0286890
:101D50009BFAABF26169B2FA82F220F0F80091408E
:101D60000843286025E0FFE796FAA6F1B1FA81F171
:101D700048F821A0FFF7DCFA814605E0FFF7D8FA22
:101D8000A0EB09000228CCD897FAA7F0B0FA80F0AF
:101D900040F02000400901D0286800E0686A97FA06
:101DA000A7F1B1FA81F101F01F0106FA01F1084231
:101DB000E4D1207800076AD5A069A0B396FAA6F00E
:101DC000B0FA80F008EB8000C0F88064FFF7B0FA4A
:101DD000814605E0FFF7ACFAA0EB09000228A0D885
:101DE00097FAA7F0B0FA80F040F06000B6EB501F11
:101DF00002D128680CE077E197FAA7F0B0FA80F0FA
:101E000040F06000B7EB501F01D1286A00E0686A1B
:101E100097FAA7F1B1FA81F101F01F0106FA01F278
:101E20001042D7D033E0FFE796FAA6F0B0FA80F080
:101E300008EB8000C0F880A4FFF77AFA814605E03D
:101E4000FFF776FAA0EB090002289CD897FAA7F0D2
:101E5000B0FA80F040F06000B6EB501F01D1286866
:101E60000BE097FAA7F0B0FA80F040F06000B7EB13
:101E7000501F01D1286A00E0686A97FAA7F1B1FA09
:101E800081F101F01F0106FA01F21042D8D1207849
:101E9000400774D5E8694FF00009C00009D4E8692B
:101EA00040F08050E861E8694FF0010900F080508F
:101EB000009031480168C90512D4016841F480716D
:101EC0000160FFF735FA834606E000BFFFF730FAFE
:101ED000A0EB0B00642875D827480068C005F5D52D
:101EE000E06801280AD008B1052811D0286A20F03E
:101EF00001002862286A20F0040002E0286A40F00D
:101F000001002862E068C8B3FFF712FA83460DE0CB
:101F1000286A40F004002862F0E700BFFFF708FAE3
:101F2000A0EB0B0141F2883081424BD897FAA7F021
:101F3000B0FA80F040F04000B6EB501F01D12868A5
:101F40000BE097FAA7F0B0FA80F040F04000B7EB52
:101F5000501F01D1286A00E0686A97FAA7F1B1FA28
:101F600081F101F01F0106FA01F21042D6D035E0EE
:101F700000100240000042420070004000E034E0E7
:101F8000FFF7D6F9834607E0FFF7D2F9A0EB0B0184
:101F900041F28830814215D897FAA7F0B0FA80F064
:101FA00040F04000B6EB501F01D128680CE097FAD2
:101FB000A7F0B0FA80F040F04000B7EB501F02D11C
:101FC000286A01E083E0686A97FAA7F1B1FA81F123
:101FD00001F01F0106FA01F21042D5D1B9F1000F4C
:101FE00003D0E86920F08050E861E06980B3696857
:101FF000C1F38101022977D04FF080714F00022890
:1020000009D091FAA1F0B0FA80F048F820A0FFF7CB
:102010008FF904465EE050468A4691FAA1F1B1FA82
:1020200081F1C14648F82100FFF782F9804605E0BA
:10203000FFF77EF9A0EB0800022848D897FAA7F02E
:10204000B0FA80F040F02000400902D0286801E09A
:1020500056E0686A97FAA7F1B1FA81F101F01F0121
:1020600006FA01F10842E3D1D4E90810084369688F
:1020700021F47411084368609AFAAAF0B0FA80F06B
:1020800049F82060FFF754F9044604E0FFF750F9DF
:10209000001B02281BD897FAA7F0B0FA80F040F096
:1020A0002000400901D0286800E0686A97FAA7F18B
:1020B000B1FA81F101F01F0106FA01F10842E5D001
:1020C0001EE000BFFFF734F9001B022802D90320ED
:1020D000BDE8F88F97FAA7F0B0FA80F040F0200042
:1020E000400902D0286801E00CE0686A97FAA7F17D
:1020F000B1FA81F101F01F0106FA01F10842E1D1C4
:102100000020E5E70120E3E72DE9F041040005D0D8
:102110000025A56294F85D0018B107E00120BDE834
:10212000F08184F85C50204600F04AF8022384F8DD
:102130005D302068016821F040010160E0684FF4E3
:10214000E066B04201D9002101E04FF48051B0F5C2
:10215000706F02D0B04200D0A562276B012227B970
:10216000B04201D9236300E02263D4E9010318439C
:10217000D4E9043633431843238B03F40073184324
:10218000E3691843236A1843A36A18432368186055
:10219000636B606AA66918430427E36807EA16467A
:1021A000334318430843216848602068C16921F41B
:1021B0000061C161256684F85D200020AFE7000062
:1021C00000B500680E4987B0884217D10D48816973
:1021D00041F4805181618069694600F48050059026
:1021E000E020009002200190002002900320039044
:1021F000052004904FF09040FEF7CCFF07B000BDE3
:1022000000300140001002404FF0E021042808692E
:1022100003D020F004000861704740F00400FAE7A2
:10222000704710B5401EB0F1807F01D3012010BD72
:102230004FF0E02460610F21601700F097FD00204F
:10224000A06107202061002010BD10B5FFF7E8FF56
:1022500010BD70477047704730B590F83C20012A98
:102260001FD0012280F83C200268536894680E4D0C
:10227000AA4202D00D4DAA4203D123F470054B6847
:102280002B4323F070050B6889682B4324F08004EE
:102290002143536002689160002180F83C10084699
:1022A00030BD022030BD0000002C01400034014050
:1022B00010B5040003D094F83D0010B107E00120F0
:1022C00010BD002084F83C00204600F00DF80220EC
:1022D00084F83D00211D206800F02EFE012084F8C6
:1022E0003D00002010BD000008B50068B0F1804F2F
:1022F00012D10A48C16941F00101C161C0690022DF
:1023000000F00100009001211C20FFF773F9BDE8E7
:1023100008401C20FFF762B908BD00000010024011
:102320000168CA6842F00102CA600068016841F0B1
:10233000010101600020704770B5044690F83C0030
:10234000012817D0012584F83C50022084F83D0074
:1023500022689068364E304020F47F4090600868D4
:10236000502839D00DDC20285BD005DC98B310282C
:1023700043D153E0022070BD302855D040283CD1D5
:1023800041E0602830D070280CD0B0F5805F03D0D9
:10239000B0F5005F31D112E020688168244A7032C4
:1023A000114016E0CB68D1E90121206800F01CFE45
:1023B00021688868304040F0770088601DE0CB6875
:1023C000D1E90121206800F00FFE2068816841F406
:1023D0008041816011E01EE0CA684968206800F011
:1023E00015FE5021206806E0CA684968206800F0A0
:1023F0001EFE6021206800F001FE84F83D500020A0
:1024000084F83C0070BDCA684968206800F0FEFD91
:1024100040212068EFE700212068ECE710212068C8
:10242000E9E720212068E6E730212068E3E70000A3
:1024300088FFFEFF704770B50446006801694FF0E1
:102440000005C943890715D4C168C943890711D458
:10245000E91E0161012020772068806980072046FD
:1024600002D0FFF7E7FF04E000F0A7F8204600F0F5
:10247000A5F8257720680169C943490717D4C168C1
:10248000C943490713D46FF004010161022020778A
:102490002068806910F4407F204602D0FFF7CAFF11
:1024A00004E000F08AF8204600F088F825772068DC
:1024B0000169C943090716D4C168C943090712D481
:1024C0006FF008010161042020772068C06980074F
:1024D000204602D0FFF7AEFF04E000F06EF8204681
:1024E00000F06CF8257720680169C943C90617D444
:1024F000C168C943C90613D46FF0100101610820F7
:1025000020772068C06910F4407F204602D0FFF792
:1025100091FF04E000F051F8204600F04FF82577D5
:1025200020680169C943C90708D1C168C943C907FF
:1025300004D1891E0161204600F041F8206801693C
:10254000C943090609D4C168C943090605D46FF017
:10255000800101612046FFF77DFE20680169C943C3
:10256000C90509D4C168C943090605D46FF480714F
:1025700001612046FFF76DFE20680169C9434906E5
:1025800009D4C168C943490605D46FF0400101610F
:10259000204600F015F820680169C94389060BD46C
:1025A000C168C943890607D46FF020010161204644
:1025B000BDE87040FFF74FBE70BD70477047704771
:1025C000704770477047000070B503680446D869CB
:1025D000196810F00F0508D1820606D58A0604D5C1
:1025E0002046BDE8704000F0EBBD9A68002D66D033
:1025F00002F0010501F490762E4360D0C60707D0A3
:10260000CE0505D501261E62E36E43F00103E366A5
:10261000830708D5D30706D0266802233362E36E0A
:1026200043F00403E366430708D5D20706D02368C6
:1026300004221A62E26E42F00202E26602070AD542
:1026400001F020022A4306D0236808221A62E26EB3
:1026500042F00802E266E26E002A29D0800604D524
:10266000880602D5204600F0ABFDE06E000703D4DB
:102670002068806840061CD5204600F086FD206852
:102680008168490611D5816821F040018160606E42
:1026900058B11C494163606EFEF736FD002807D033
:1026A000606E416BBDE8704008472046FFF78AFF27
:1026B00070BD2046FFF786FF0020E06670BDC502B2
:1026C0000ED552020CD54FF480101862202084F8E9
:1026D000690084F86A002046BDE87040FFF771BFCA
:1026E000020606D50A0604D52046BDE8704000F073
:1026F0008DBE4006E2D54806E0D52046BDE87040D4
:1027000000F051BD7731000810B5040003D094F8F3
:10271000690010B107E0012010BD002084F86800B6
:10272000204600F027F8242084F86900206801681A
:1027300021F001010160204600F07EFD0128EBD070
:10274000606A10B1204600F084FC2068416821F4E2
:10275000904141602068816821F02A0181602068F1
:10276000016841F0010101602046BDE8104000F021
:10277000D4BC000000B50068124987B088421FD160
:102780001148C16941F40031C161C069694600F472
:10279000003005900C200090022001900020029053
:1027A00003200390072004904FF09040FEF7F2FCC6
:1027B000002201212620FEF71DFF2620FEF70EFF36
:1027C00007B000BD004400400010024090F86A309D
:1027D000202B36D199B192B190F86830012B30D0CE
:1027E000012380F868304165A0F85820A0F85A20ED
:1027F0008168FF22B1F5805F03D039B10BE0012081
:1028000070470169D1B940F2FF1102E00169A9B135
:102810007F21A0F85C100021C166222280F86A2086
:1028200080F8681001688A6842F001028A600068D6
:10283000016841F49071016000207047A0F85C20AD
:10284000E9E70220704700002DE9F04701222949FD
:102850002948FFF7BBFFDFF8A4904FF4807148468A
:10286000FEF75CFD234800240546027800F10C01C8
:102870000D2A06D0A8680A54401CA8600C54BDE874
:10288000F0874FF47A730A7891F80280CF780E7946
:1028900006E0052822D2DFE800F0030B12171B0028
:1028A000532A25D0102216A1134800F033F813E064
:1028B00011F800C0BCF1410FF4D1401CE9E7B8F1B8
:1028C000460FEFD10320E4E7452FEBD10420E0E7EA
:1028D000002EE7D10520DCE7AC60D0E7401C64287F
:1028E000D7D34FF4007148466C60FEF717FDF3E74D
:1028F0000120DDE7180000204C02002000100048F5
:10290000496E76616C696420636F6D6D616E640AF7
:10291000000000002DE9F843044690F869001F46C6
:1029200016460D4620284DD1CDB1C6B194F86800A9
:10293000012847D0012084F868004FF00008C4F84F
:102940006C80212084F869005034FEF7F1FC24F8F3
:10295000026B814624F852694FF4805618E001203A
:10296000BDE8F883B4F85200401EA4F852004B466C
:10297000002280212046009700F07AFDA0B9A068CF
:10298000B04201D1206988B115F8010B2168088592
:10299000B4F852000028E5D14B46002240212046E1
:1029A000009700F065FD30B10320D9E735F8020B40
:1029B000C0F30800EAE7202084F8690084F8688002
:1029C0000020CDE70220CBE77047FEE7F0B589B0E5
:1029D0000C460F49DDE9106591F800E00021DDE9C2
:1029E0000EC705910691CDE9003C07910891134669
:1029F000BEF1000F02972246014601D0012000E0FF
:102A00000020CDE9036500F0A9FF09B0F0BD00008A
:102A10000000002030B5194889B04FF0A0410024D3
:102A2000C0E900140461C46101254462C0E90B548B
:102A300010210562C0E9021404214463C0E90514B1
:102A40008463FEF739F900B1FEE706A90B48069446
:102A5000FDF744FD00B1FEE70220CDE900050720A7
:102A6000CDE902040494694604480594FDF7C0FDCD
:102A7000002800D0FEE709B030BD0000B4000020FF
:102A800030B5154887B013490024C0E9001404612B
:102A9000C46101254462C0E90B5410210562C0E9FC
:102AA000021404214463C0E905148463FEF704F9A9
:102AB00000B1FEE70720CDE90204009501950494DA
:102AC000694605480594FDF793FD002800D0FEE710
:102AD00007B030BD00010050080100202DE9F04F83
:102AE000524887B0416941F400114161416901F4E4
:102AF00000110591416941F400214161416901F4EE
:102B000000210591416941F480014161416901F46D
:102B100080010591416941F400314161416901F44D
:102B200000310591416941F480214161416901F41D
:102B300080210591416941F48011416140693C4E19
:102B400000F480104FF608750590002229463046A3
:102B5000FEF7E8FB4FF400474FF09049002239465A
:102B60004846FEF7DFFBDFF8CCA04FF4E058002228
:102B700041465046FEF7D6FBDFF8BCB000227F216D
:102B80005846FEF7CFFB362000902C480024CDE9B4
:102B9000010469463046FEF7FDFA00950125CDE9AE
:102BA0000154694630460394FEF7F4FA244E02209D
:102BB0000095CDE9016069464846FEF7EBFA4FF40F
:102BC0004040CDE90006694602941E48FEF7E2FA4D
:102BD0000097CDE90154694648460394FEF7DAFAB6
:102BE000CDF80080CDE90154694650460394FEF7C4
:102BF000D1FA7F200090CDE90154694658460394EC
:102C0000FEF7C8FA002201210620FEF7F3FC062099
:102C1000FEF7E4FC002201212820FEF7EBFC28202F
:102C2000FEF7DCFC07B0BDE8F08F000000100240AA
:102C30000010004800080048000C00480000121076
:102C40000000111000040048114810B50F49016040
:102C50001049416000210122C0E902120161416175
:102C60008161C1610162FEF7BDFB00B1FEE7002199
:102C70000748FEF763FB00B1FEE700210448FEF7BA
:102C800088FB002800D0FEE710BD00000054004083
:102C90005C0100200E090020104810B50E490160AB
:102CA0004FF48271416000214FF44072C0E902127A
:102CB0004FF400720161C0E905120822C0E9072142
:102CC00007234162C0E90A13C0E90C12FFF71CFA9E
:102CD000002800D0FEE710BD00300140A801002010
:102CE00010B5124888B04FF0804101600A210024DD
:102CF000C0E901145A21C0E903148461FFF7D8FA2E
:102D000000B1FEE74FF48050039003A90748FFF796
:102D100013FB00B1FEE70094694604480294FFF7F4
:102D20009BFA002800D0FEE708B010BD0C0200207E
:102D30000C4810B50A4901604FF41651416000215A
:102D400081600C22C160C0E904128161C16101622D
:102D50004162FFF7D9FC002800D0FEE710BD00005B
:102D6000004400404C020020FEE770470907090EAE
:102D7000002806DA00F00F0000F1E02080F8141DB2
:102D8000704700F1E02080F80014704770477047EA
:102D900010B5FEF7A9FBBDE81040FFF756BA0000DA
:102DA00030B59FB0032000904FF4A0200024CDE95F
:102DB0000104012004901020059002250003CDE9B4
:102DC00007504FF4E01009906846FEF7D5FE00B1B9
:102DD000FEE70F20CDE919054FF48060CDE91B40D7
:102DE000022119A81D94FEF7BDFD00B1FEE70F48B2
:102DF0000A904012189413900D9411940AA8FEF7AB
:102E0000A5FC00B1FEE7FEF74FFE4FF47A71B0FB70
:102E1000F1F0FFF706FA0420FFF7F6F90022114659
:102E2000501EFEF7E7FB1FB030BD0000A2000200FD
:102E30001448016841F4700101601348016841F0D1
:102E4000010101604168114A114041600168104A66
:102E500011400160016821F480210160416821F482
:102E6000FE014160C16A21F00F01C162016B094A94
:102E700011400163002181600249C003803908606C
:102E80007047000088ED00E0001002400CC07FF8A1
:102E9000FFFFF6FECCFC00FF10B52448FFF7CBFA8D
:102EA0004FF480512248FEF739FA22480068002882
:102EB0004FF0000024D000F005FD462000F050FE49
:102EC0001420FEF747F9012000F0FCFC492000F037
:102ED00047FE1420FEF73EF9022000F0F3FC5220DA
:102EE00000F03EFE1420FEF735F9032000F0EAFC66
:102EF000452000F035FEBDE810401420FEF72AB949
:102F000000F0E0FC532000F02BFE1420FEF722F925
:102F1000012000F0D7FC412000F022FE1420FEF733
:102F200019F9022000F0CEFC4620D9E70C0200205F
:102F3000001000481C0000202DE9F0430268234BDC
:102F4000234D244E244C4FF08049984207D04845E9
:102F500005D0A84203D0B04201D0A04203D122F054
:102F600070074A683A431D4FDFF874C0DFF8748079
:102F700098420DD048450BD0A84209D0B04207D0A6
:102F8000A04205D0B84203D0604501D0404503D1EE
:102F900022F44075CA682A434D6922F080022A4310
:102FA00002608A68C2620A688262984207D0A042C0
:102FB00005D0B84203D0604501D0404501D1096930
:102FC000016301214161BDE8F0830000002C014054
:102FD000000400400008004000340140004001406F
:102FE000004401400048014010B5846842EA0322D1
:102FF00024F47F440A432243826010BD826822F099
:1030000070020A4342F007018160704710B5036AFD
:10301000046A24F001040462846924F0F00444EAA0
:10302000021423F00A020A438461026210BD10B543
:10303000036A23F0100303628369046A23F4704374
:1030400043EA023224F0A00343EA011182610162E3
:1030500010BD90F82410C90706D001684A68836A39
:1030600022F400321A434A6090F82410890706D5EA
:1030700001684A68C36A22F480321A434A6090F8B1
:103080002410490706D501684A68036B22F48022A0
:103090001A434A6090F82410090706D501684A6867
:1030A000436B22F400421A434A6090F82410C90688
:1030B00006D501688A68836B22F480521A438A60BD
:1030C00090F82410890606D501688A68C36B22F43B
:1030D00000521A438A6090F82410490611D50168FD
:1030E0004A68036C22F480121A434A60016CB1F5FD
:1030F000801F06D101684A68436C22F4C0021A435B
:103100004A6090F82410090606D501684A68806C68
:1031100022F4002202434A607047F8B500260446B4
:10312000C666FEF705F90546206800686FF07E4721
:10313000000708D52B4600224FF4001120460097C7
:1031400000F096F960B92068006840070AD52B4660
:1031500000224FF480012046009700F089F908B161
:103160000320F8BD202084F8690084F86A0084F800
:1031700068600020F8BD10B5406A0021A0F85A1020
:10318000A0F85210FFF71EFA10BD01680A6822F479
:1031900090720A6001688A6822F001028A60202128
:1031A00080F86A10704710B501680A6822F0400282
:1031B0000A60202180F86910FFF706FC002010BD8E
:1031C00010B5B0F85C2090F86A300168222B05D069
:1031D000886940F008008861022010BD898C8368EE
:1031E000B3F5805F01D103696BB11140426D531C8F
:1031F00043651170B0F85A10491E0904090CA0F873
:103200005A1007D015E0436D11401980416D891C9B
:103210004165EFE701680A6822F490720A6001686C
:103220008A6822F001028A60202180F86A10FFF784
:103230000BFB002010BD00002DE9F04104461020DA
:103240002369A268E6691A436369002133431A437C
:1032500023680D461E6849F20C67BE4316431E6084
:1032600022685368E66823F4405333435360236A6B
:10327000A2691A4323689E6826F4306616439E604E
:103280005A4F22685A4B0603BA420CD11B6B13F0FB
:10329000030306D0012B4DD0022B4DD0032B4CD174
:1032A00046E0012049E0534FBA420CD11B6B13F4A6
:1032B00040333BD0B3423DD0B3F5003F3CD0B3F5F3
:1032C000403F3AD134E04C4FBA420DD11B6B13F45E
:1032D00040232BD0B3F5802F2CD0B3F5002F2BD06B
:1032E000B3F5402F29D123E0444FBA420DD11B6BD7
:1032F00013F440131AD0B3F5801F1BD0B3F5001F91
:103300001AD0B3F5401F18D112E03D4FBA4214D184
:103310001B6B13F4400309D0B3F5800F0AD0B3F54B
:10332000000F09D0B3F5400F07D101E0002004E001
:10333000022002E0042000E00820E7694FF4004387
:103340009F4226D109281DD2DFE800F00508121C93
:10335000151C1C1C1800FEF7ADFB01E0FEF7C2FBBC
:103360004100606801EB5001B1FBF0F081B20AE06E
:1033700024496068F6E7FEF7CDFBF1E7606806EBED
:103380005001F1E7012521F00F00C1F3420108438C
:103390001CE0092825D2DFE800F005080B241024E2
:1033A00024241C00FEF786FB09E0FEF79BFB06E0E9
:1033B0001549606801EB50010EE0FEF7ABFB0146DA
:1033C000606801EB5001B1FBF0F080B22168C86089
:1033D00008E0606803EB5001B1FBF0F080B2D06010
:1033E00000E001252846BDE8F081000000380140DA
:1033F000001002400044004000480040004C0040E3
:10340000005000400024F40000127A0090F8691087
:10341000212901D002207047B0F8521021B18168F3
:10342000B1F5805F0BD00CE001680A6822F08002E1
:103430000A600068016841F0400101600CE0016928
:1034400061B1C16C4A1CC26402680978A2F82810F4
:1034500030F8521F491E018000207047C16C02687D
:103460000988C1F308011185C16C891CC164EFE7AB
:103470002DE9F041984617460E460446069D1DE08C
:10348000681C1BD02DB1FDF753FFA0EB0800A8422C
:1034900014D92068016821F4D07101602068816826
:1034A00021F001018160202084F8690084F86A001D
:1034B000002084F868000320BDE8F0812068C0691E
:1034C00036EA000004D00020B842D9D00020F3E74B
:1034D0000120F9E70148FFF777B800004C0200200F
:1034E000FEE700000FB4084B10B504A902AA039828
:1034F00000F01CF8044602A9002000F0C1F82046A4
:1035000010BC5DF814FB00008136000802E008C81A
:10351000121F08C1002AFAD170477047002001E04D
:1035200001C1121F002AFBD1704700002DE9FF4F97
:1035300089B09B460446002506E025280BD05A4654
:103540000B999047641C6D1C20780028F5D10DB0B4
:103550002846BDE8F08F0027B8460122474900E021
:10356000074314F8013F203B02FA03F00842F7D169
:1035700020782E2819D114F8010F47F004072A28C3
:103580000ED06FF02F022078A0F1300109290CD85D
:1035900008EB880102EB410100EB0108641CF2E733
:1035A0000A98641C50F8048B0A9020780028CED02A
:1035B000642808D0692806D075281ED05A460B9971
:1035C00090476D1C58E00A994FF00A0901C90A9109
:1035D000002802DA40422D2102E0390504D52B21D2
:1035E0008DF82010012103E0F90704D02021F7E72E
:1035F0008A4608AE0DE00021FAE70A994FF00A0961
:1036000001C90A91F7E74946FCF7E1FD303106F8B8
:10361000011D0028F7D1ADEB060000F12009780765
:1036200001D44FF00108C84502DDA8EB090000E015
:1036300000208046002706E008A85A46C05D0B9986
:1036400090476D1C7F1C5745F6DB04E030205A463E
:103650000B9990476D1CB8F10001A8F10108F5DC49
:1036600005E016F8010B5A460B9990476D1CB9F10D
:103670000001A9F10109F4DC641C65E709280100D7
:103680000A68531C0B6010707047000030B54B4C3B
:1036900085B00D46012903D9A17841F00801A17038
:1036A00000F14003024665714021002000F038FB24
:1036B000607828B1012D03D1A07840F00400A070FB
:1036C00000F0AAF8032003900120019021783C48E3
:1036D0000029E2880188638941EA0201228942EADD
:1036E000030241EA0201428841EA0201828841EA7A
:1036F000020101D0C08808E0C28811430289114349
:10370000428911438289C08911430143009169466E
:10371000E068FDF73FFD3220FDF71CFD0022E18847
:10372000E068FDF7FFFD00226189E068FDF7FAFD22
:103730002189FF2903D00022E068FDF7F3FDA0787E
:10374000C10615D4032000F0FBFA0520FDF702FDA9
:10375000032000F0F5FA0520FDF7FCFC032000F043
:10376000EFFA0120FDF7F6FC022000F0E9FA13E081
:1037700040F0200000F02FF80520FDF7EBFCA078CA
:1037800040F0200000F027F80120FDF7E3FCA078CE
:1037900040F0200000F01FF8A07840F0200000F07A
:1037A0001AF80420E07000F02BF800F00BF802206B
:1037B0002071062000F00FF805B030BD0000002099
:1037C000A400002010B5012000F005F8BDE810406D
:1037D0000220FDF7BFBC002100F06CBA70B50D46A9
:1037E00000F00700402141EAC000FFF7F4FF002489
:1037F0000121285D00F05EFA641C082CF8DB70BD26
:103800000449C87840F00400C87040F00800FFF791
:10381000E2BF000000000020234808B5C16823482B
:10382000B1F1904F0BD0224A914210D1416941F43D
:1038300080214161406900F48020009008BD416909
:1038400041F400314161406900F40030F5E7194A64
:10385000914207D1416941F400214161406900F47E
:103860000020EAE7144A914207D1416941F48011EE
:103870004161406900F48010DFE7104A914207D1AE
:10388000416941F400114161406900F40010D4E73E
:103890000B4A9142D2D1416941F4800141614069B2
:1038A00000F48000C9E70000000000200010024082
:1038B0000004004800080048000C004800100048C0
:1038C000001400482DE9F0414FF400414F11224C03
:1038D0000D114FF09043CE10D0B101281ED0022818
:1038E0002CD0032835D101221846FDF71BFD0122FB
:1038F00039462046FDF716FD012229462046FDF7F0
:1039000011FD002231462046BDE8F041FDF70ABD19
:1039100000221846FDF706FD012204E001221846A8
:10392000FDF700FD002239462046FDF7FBFC012291
:1039300029462046FDF7F6FC0122E3E7012218465E
:10394000FDF7F0FC012239462046FDF7EBFC002292
:10395000EEE7BDE8F0810000000800482DE9F05FC7
:103960000AAC94E8E05F0F4CE28023816581E1605E
:103970000D490E804F80A1F80480A1F80690A1F8AF
:1039800008A0A1F80AB0A1F80CC0A1F80EE008B197
:10399000002000E01020A070BDE8F05F02211020A0
:1039A000FFF774BE00000020A40000208EB0FDF7D9
:1039B000A3FD4FF480435A10511048108DE80F00BA
:1039C00044108210C11023464A48FEF7FFFF04212D
:1039D0001420FFF75BFEFFF7E3F9FFF77FF8FFF72F
:1039E00033F9FFF759F9454843490022016008219E
:1039F00041600221C0E90212826102620161FDF7A9
:103A00002BFE00B1FEE7FFF705F8FFF739F8FFF7E7
:103A10008FF9FFF765F93948012239497038FEF707
:103A2000D5FE3648B038FEF77BFC36A1D1E900015F
:103A3000CDE9040135A0D0E90010CDE9061035A18B
:103A4000D1E90001CDE9080134A0D0E90010CDE9A9
:103A50000A1034A1D1E90001CDE90C0104A900202C
:103A6000FFF7BCFE06A90120FFF7B8FE08A9022057
:103A7000FFF7B4FE0AA90320FFF7B0FE0CA904204B
:103A8000FFF7ACFE01210F2000F036F927A000F06F
:103A900053F8012000F04EF9002000F04BF902210C
:103AA0000F2000F029F921A000F046F8032000F0D3
:103AB00041F9022000F03EF91D4D00220821284660
:103AC000FDF730FC012204212846FDF72BFC0122E2
:103AD00010212846FDF726FC012221462846FDF745
:103AE00021FC1448FDF750FA12485430FDF74CFA07
:103AF000FEE70000000C0048005C0040BC02002013
:103B00001800002000000804020408001010101023
:103B1000101F0300000A021E0000000000000B0B33
:103B20000912000000040E1F0E0400003A000000FD
:103B300000100048B400002070B500280FD00446E3
:103B4000FCF73EFB0546002606E000BF14F8010B1B
:103B5000012100F0AFF8761C6D1EF7D2304670BD23
:103B600010B5444C492851D016DC412873D0452863
:103B700036D046287CD1012211462046FDF7D2FBE3
:103B8000002202212046FDF7CDFB00220421204621
:103B9000FDF7C8FB002233E052285CD0532867D1E0
:103BA000012211462046FDF7BDFB002202212046DE
:103BB000FDF7B8FB012204212046FDF7B3FB0122EB
:103BC00008212046FDF7AEFB002210212046FDF71C
:103BD000A9FB012220212046FDF7A4FB012234E0AD
:103BE000012211462046FDF79DFB002202212046BE
:103BF000FDF798FB002204212046FDF793FB0122EC
:103C000008212046FDF78EFB0122DEE7002201217C
:103C10002046FDF787FB012202212046FDF782FBAB
:103C2000012204212046FDF77DFB002208212046C9
:103C3000FDF778FB002210212046FDF773FB0022E0
:103C400020212046FDF76EFB00222046BDE81040F3
:103C50004021FDF767BB012211462046FDF762FBBC
:103C6000012202212046FDF75DFB01228EE7FFE7DE
:103C700010BD0000000C004810B50D4C00226189F9
:103C8000E068FDF74FFB0120FDF764FA012261892E
:103C9000E068FDF747FB0120FDF75CFA002261892F
:103CA000E068FDF73FFBBDE810400120FDF752BA88
:103CB0000000002070B50F4C05460A46E188E06818
:103CC000FDF730FB2189FF2903D00022E068FDF7D2
:103CD00029FBA078C00604D52846BDE8704000F056
:103CE00049B8280900F02CF82846BDE8704000F0DB
:103CF00027B8000000000020042900D30321074A50
:103D00005279914201D3521ED1B2044A1032515C11
:103D10000844C0B240F08000FFF75DBD0000002005
:103D200010B5034C20706170A270E37010BD0000EC
:103D30001000002010B50121FFF7BCFF012010BDCD
:103D40002DE9F041094E0A4F0546002425FA04F0FA
:103D500000F0010236F81410F868FDF7E3FA641C6D
:103D6000042CF3DBBDE8F041FFF786BFA400002080
:103D7000000000202DE9F041094E0A4F05460024BD
:103D800025FA04F000F0010236F81410F868FDF787
:103D9000C9FA641C082CF3DBBDE8F041FFF76CBFE7
:103DA000A400002000000020020304050607080903
:103DB0000A0B0C0D0E0F1010010203040506070874
:103DC000090A0B0C0D0E0F1000000000000000008F
:103DD00001020304060708090000000001020304B1
:103DE000003E000800000020A40000000C35000880
:103DF000A43E0008A4000020C40900001C350008EF
:103E000001000000000000000000000000000000B1
:103E100000000000000000000000000000000000A2
:103E20000000000053414645000000000000000073
:103E30000000000000000000000000000000000082
:103E40000000000000000000000000000000000072
:103E50000000000000000000000000000000000062
:103E60000000000000000000000000000000000052
:103E70000000000000000000000000000000000042
:103E80000000000000000000000000000000000032
:103E90000000000001000000100000000000000011
:043EA00000127A0092
:040000050800018965
:00000001FF
